:020000040800F2
:100000000028002045190008D5180008DB18000852
:10001000E1180008E7180008ED18000800000000CB
:10002000000000000000000000000000F3180008BD
:10003000FF180008000000000B190008171900083D
:100040008D1900088D1900088D1900088D190008F8
:100050008D1900088D1900088D1900088D190008E8
:100060008D1900088D1900088D1900088D190008D8
:100070008D1900088D1900088D1900088D190008C8
:100080008D1900088D1900088D1900088D190008B8
:100090008D1900088D1900088D1900088D190008A8
:1000A0008D1900088D1900088D1900088D19000898
:1000B000251900088D190008000000008D1900089E
:1000C0008D19000800000000000000008D190008D4
:1000D000000000008D1900088D19000800000000C4
:1000E0008D1900088D1900088D1900080000000006
:1000F0000000000000000000000000000000000000
:0C01000000000000000000005FF808F1A3
:10010C0010B5054C237833B9044B13B10448AFF345
:10011C0000800123237010BD40000020000000006F
:10012C00E42F000808B5034B1BB103490348AFF398
:10013C00008008BD0000000044000020E42F0008EF
:10014C0080B582B000AF78607B68022B15D07B68DD
:10015C00022B18DC7B68002B03D07B68012B06D0AC
:10016C0011E002210A4801F0F7FE03460CE00421DD
:10017C00074801F0F1FE034606E00821044801F0AF
:10018C00EBFE034600E0012318460837BD4680BD50
:10019C000008014080B483B000AF7860044A7B68EB
:1001AC00012142F8231000BF0C37BD4680BC7047BC
:1001BC000400002080B483B000AF7860044A7B68F0
:1001CC00012142F8231000BF0C37BD4680BC70479C
:1001DC001000002080B582B000AF00237B6071E07E
:1001EC003C4A7B68134419783B4A7B6813440A46A3
:1001FC001A703A4A7B6813441978364A7B68134460
:10020C000A461A707868FFF79BFF03461946334A73
:10021C007B6813440A461A702F4A7B6813441A7879
:10022C002C497B680B441B789A4248D12B4A7B683B
:10023C0013441A7827497B680B441B789A423ED1A9
:10024C00274A7B6813441A7823497B680B441B7834
:10025C009A4217D0204A7B6813441978204A7B684D
:10026C0013440A461A701C4A7B6813441B78002BF3
:10027C0025D17868FFF78EFF1A4A7B68642142F813
:10028C0023101CE0174A7B6852F823305A1E15497C
:10029C007B6841F82320134A7B6852F82330002BEB
:1002AC000DDC0D4A7B6813441B78002B02D1786857
:1002BC00FFF780FF0B4A7B68642142F823107B68B0
:1002CC0001337B607B68022B8ADD00BF00BF0837DF
:1002DC00BD4680BD5C000020600000206400002052
:1002EC00000000201C00002080B483B000AF034647
:1002FC00FB71FB79022B01D900230DE0FB79094A34
:10030C0052F82330012B06D1FB79064A002142F822
:10031C002310012300E0002318460C37BD4680BC97
:10032C00704700BF0400002080B483B000AF0346C8
:10033C00FB71FB79022B01D9FF230DE0FB79094AF4
:10034C0052F82330012B06D1FB79064A002142F8E2
:10035C002310012300E0002318460C37BD4680BC57
:10036C00704700BF1000002080B500AF5E4B1B68CB
:10037C00013B032B00F2AF8001A252F823F000BF27
:10038C009D030008C303000823040008830400082D
:10039C00002000F0E3FF544B02221A60534B1B6801
:1003AC00642202FB03F3184601F06AF94F4B1B68F9
:1003BC004F4A136096E0002000F0C4FA4C4B1B68C7
:1003CC001946002000F0B2FF00F0D4FF494B1B6827
:1003DC00012B0ED1444B03221A60474B1B6864223D
:1003EC0002FB03F3184601F04BF9434B1B68404AE0
:1003FC0013600020FFF778FF0346012B6DD13A4BB9
:10040C006FF00D021A603D4B6FF00D021A603C4B01
:10041C0001221A6061E0002000F0FCFA344B1B68EA
:10042C001946002000F082FF00F0A4FF314B1B683E
:10043C00012B0ED12C4B04221A60324B1B68642208
:10044C0002FB03F3184601F01BF92E4B1B68284ADC
:10045C0013600020FFF748FF0346012B3FD1224BCE
:10046C006FF00D021A60254B6FF00D021A60244BD1
:10047C0001221A6033E0002000F098FA1C4B1B6834
:10048C001946002000F052FF00F074FF194B1B6856
:10049C00012B0ED1144B02221A60144B1B686422E0
:1004AC0002FB03F3184601F0EBF8104B1B68104AE3
:1004BC0013600020FFF718FF0346012B11D10A4BE4
:1004CC006FF00D021A600D4B6FF00D021A600C4BA1
:1004DC0001221A6005E000BF04E000BF02E000BF8B
:1004EC0000E000BF00BF80BD680000202800002095
:1004FC00740000207C0000202C0000206C000020E8
:10050C00700000203000002080B500AF734B1B68DA
:10051C00013B182B00F2D98001A252F823F000BF46
:10052C0091050008D7060008D7060008D706000872
:10053C00D7060008D7060008D7060008D70600081B
:10054C00D7060008D7060008D7060008D70600080B
:10055C00D7060008D7060008D7060008D7060008FB
:10056C00D7060008D7060008D7060008D7060008EB
:10057C00D7060008B705000817060008D7060008BC
:10058C0077060008012000F0E9FE544B17221A6090
:10059C00534B1B68642202FB03F3184601F084F8EA
:1005AC004F4B1B684F4A136096E0012000F0CAF9CC
:1005BC004C4B1B681946012000F0B8FE00F0DAFE27
:1005CC00494B1B68012B0ED1444B17221A60444B2C
:1005DC001B68642202FB03F3184601F065F8404BDC
:1005EC001B68404A13600020FFF77EFE0346012B78
:1005FC006DD13E4B6FF00D021A60384B6FF00D024F
:10060C001A603B4B01221A6061E0012000F002FAF3
:10061C00344B1B681946012000F088FE00F0AAFE3E
:10062C00314B1B68012B0ED12C4B19221A60314B0C
:10063C001B68642202FB03F3184601F035F82D4BBE
:10064C001B68284A13600020FFF74EFE0346012B5F
:10065C003FD1264B6FF00D021A60204B6FF00D024C
:10066C001A60234B01221A6033E0012000F09EF93E
:10067C001C4B1B681946012000F058FE00F07AFE56
:10068C00194B1B68012B0ED1144B16221A601A4BF6
:10069C001B68642202FB03F3184601F005F8164BA5
:1006AC001B68104A13600020FFF71EFE0346012B47
:1006BC0011D10E4B6FF00D021A60084B6FF00D024A
:1006CC001A600B4B01221A6005E000BF04E000BF6A
:1006DC0002E000BF00E000BF00BF80BD6C00002046
:1006EC002C000020780000208400002068000020EE
:1006FC0070000020300000202800002080B500AFE2
:10070C008A4B1B682C2B00F0B6802C2B00F3058138
:10071C002B2B62D02B2B00F30081012B02D02A2B28
:10072C000CD0FAE0002000F019FE012000F016FEBB
:10073C007E4B2A221A60322000F0DEFF00F036FEDB
:10074C000120FFF7D1FD0346012B0BD1784B1B6821
:10075C000133774A1360764B1B68632B02DD744BB5
:10076C0001221A600120FFF7DFFD0346012B0BD19C
:10077C006F4B1B68013B6E4A13606D4B1B68002B63
:10078C0002DC6B4B63221A60694B1B68184600F045
:10079C000BFA664B1B68283B184600F0C5FB002083
:1007AC00FFF7A2FD0346012B05D1604B2B221A60EB
:1007BC00322000F0A1FF0220FFF796FD0346012B2B
:1007CC0040F0AD805B4B01221A605B4B01221A603A
:1007DC00564B6FF00D021A60A1E000F00FFE574B64
:1007EC001B68184600F0E0F9504B1B68283B184674
:1007FC0000F09AFB0120FFF777FD0346012B0BD18C
:10080C004E4B1B6801334D4A13604C4B1B68632BDA
:10081C0002DD4A4B01221A600120FFF785FD0346D9
:10082C00012B0BD1454B1B68013B444A1360434BD6
:10083C001B68002B02DC414B63221A600020FFF77F
:10084C0053FD0346012B05D1384B2C221A60322064
:10085C0000F052FF0220FFF747FD0346012B60D149
:10086C00344B01221A60344B01221A602F4B6FF06B
:10087C000D021A6055E000F0ADFD314B1B681846B7
:10088C0000F092F9294B1B68283B184600F04CFBF2
:10089C000120FFF729FD0346012B0BD1284B1B68C8
:1008AC000133274A1360264B1B68632B02DD244B54
:1008BC0001221A600120FFF737FD0346012B0BD1F3
:1008CC001F4B1B68013B1E4A13601D4B1B68002B02
:1008DC0002DC1B4B63221A600020FFF705FD034668
:1008EC00012B09D1134B01221A60134B01221A6000
:1008FC000E4B6FF00D021A600220FFF7F5FC034659
:10090C00012B10D10B4B01221A600B4B01221A60E8
:10091C00064B6FF00D021A6005E000BF04E000BF4B
:10092C0002E000BF00E000BF00BF80BD70000020EF
:10093C0028000020680000206C00002030000020FF
:10094C002C00002080B582B000AF78607B68002B53
:10095C0003D07B68012B10D021E00122202112480A
:10096C0001F011FB012240210F4801F00CFB002289
:10097C0010210D4801F007FB11E001224FF48071AA
:10098C00094801F000FB01224FF40071064801F008
:10099C00FAFA00228021044801F0F5FA00BF00BFEA
:1009AC000837BD4680BD00BF0008014080B582B04D
:1009BC0000AF78607B68002B03D07B68012B10D0D4
:1009CC0021E000222021124801F0DDFA0122402111
:1009DC000F4801F0D8FA012210210D4801F0D3FA8A
:1009EC0011E000224FF48071094801F0CCFA012289
:1009FC004FF40071064801F0C6FA01228021044828
:100A0C0001F0C1FA00BF00BF0837BD4680BD00BF72
:100A1C000008014080B582B000AF78607B68002B85
:100A2C0003D07B68012B10D021E001222021124839
:100A3C0001F0A9FA002240210F4801F0A4FA01228A
:100A4C0010210D4801F09FFA11E001224FF4807142
:100A5C00094801F098FA00224FF40071064801F0A1
:100A6C0092FA01228021044801F08DFA00BF00BFE8
:100A7C000837BD4680BD00BF0008014080B582B07C
:100A8C0000AF78607B68002B03D07B68012B0FD004
:100A9C001FE01021114801F08EFA012220210F488D
:100AAC0001F071FA012240210C4801F06CFA10E0BF
:100ABC0080210A4801F07FFA01224FF48071074827
:100ACC0001F061FA01224FF40071044801F05BFA65
:100ADC0000BF00BF0837BD4680BD00BF0008014005
:100AEC0080B582B000AF78607B68002B03D07B6848
:100AFC00012B0FD01FE001221021114801F043FA05
:100B0C0040210F4801F057FA012220210C4801F036
:100B1C003AFA10E001228021094801F034FA4FF42E
:100B2C000071074801F047FA01224FF48071044824
:100B3C0001F029FA00BF00BF0837BD4680BD00BFD9
:100B4C000008014080B582B000AF78607B68002B54
:100B5C0003D07B68012B0FD01FE00122102111481C
:100B6C0001F011FA012240210E4801F00CFA20216B
:100B7C000C4801F020FA10E001228021094801F014
:100B8C0002FA01224FF40071064801F0FCF94FF40F
:100B9C008071044801F00FFA00BF00BF0837BD4652
:100BAC0080BD00BF0008014080B582B000AF786006
:100BBC007A68CE4B83FB02139910D317C91A0B46D4
:100BCC009B000B445B00D31A7B607B68002B22D10B
:100BDC0000220121C64801F0D6F900220221C448A6
:100BEC0001F0D1F900220421C14801F0CCF9002216
:100BFC000821BF4801F0C7F900221021BC4801F0C0
:100C0C00C2F900222021BA4801F0BDF9012240218D
:100C1C00B74801F0B8F97B68012B22D101220121E0
:100C2C00B34801F0B0F900220221B14801F0ABF950
:100C3C0000220421AE4801F0A6F901220821AC489B
:100C4C0001F0A1F901221021A94801F09CF901221F
:100C5C002021A74801F097F901224021A44801F076
:100C6C0092F97B68022B22D100220121A04801F0CD
:100C7C008AF9002202219E4801F085F90122042103
:100C8C009B4801F080F900220821994801F07BF97A
:100C9C0000221021964801F076F901222021944877
:100CAC0001F071F900224021914801F06CF97B6848
:100CBC00032B22D1002201218D4801F064F900227E
:100CCC0002218B4801F05FF900220421884801F0D1
:100CDC005AF900220821864801F055F90122102109
:100CEC00834801F050F901222021814801F04BF991
:100CFC00002240217E4801F046F97B68042B22D16A
:100D0C00012201217A4801F03EF9002202217848A3
:100D1C0001F039F900220421754801F034F901225F
:100D2C000821734801F02FF901221021704801F0BD
:100D3C002AF9002220216E4801F025F900224021D9
:100D4C006B4801F020F97B68052B22D10022012190
:100D5C00674801F018F901220221654801F013F9E6
:100D6C0000220421624801F00EF90022082160489B
:100D7C0001F009F9012210215D4801F004F900226B
:100D8C0020215B4801F0FFF800224021584801F077
:100D9C00FAF87B68062B22D100220121544801F07D
:100DAC00F2F801220221524801F0EDF80022042150
:100DBC004F4801F0E8F8002208214D4801F0E3F813
:100DCC00002210214A4801F0DEF800222021484878
:100DDC0001F0D9F800224021454801F0D4F87B6895
:100DEC00072B22D100220121414801F0CCF800222E
:100DFC0002213F4801F0C7F8002204213C4801F0D1
:100E0C00C2F8012208213A4801F0BDF80122102154
:100E1C00374801F0B8F801222021354801F0B3F829
:100E2C0001224021324801F0AEF87B68082B22D118
:100E3C00002201212E4801F0A6F8002202212C48A4
:100E4C0001F0A1F800220421294801F09CF80022AD
:100E5C000821274801F097F800221021244801F0BE
:100E6C0092F800222021224801F08DF80022402126
:100E7C001F4801F088F87B68092B22D10022012140
:100E8C001B4801F080F800220221194801F07BF880
:100E9C0000220421164801F076F80022082114489B
:100EAC0001F071F801221021114801F06CF80022B8
:100EBC0020210F4801F067F8002240210C4801F076
:100ECC0062F87B680A2B28D101220121084801F025
:100EDC005AF801220221064801F055F8012204219A
:100EEC00034801F050F8012204E000BF6766666613
:100EFC00000C014008210B4801F045F8012210219B
:100F0C00084801F040F801222021064801F03BF886
:100F1C0001224021034801F036F800BF0837BD46D6
:100F2C0080BD00BF000C014080B582B000AF78607E
:100F3C007A68D24B83FB02139910D317C91A0B464C
:100F4C009B000B445B00D31A7B607B68002B28D181
:100F5C0000228021CA4801F016F800224FF480715B
:100F6C00C74801F010F800224FF40071C44801F09A
:100F7C000AF800224FF48061C14801F004F8002205
:100F8C004FF40061BE4800F0FEFF00224FF4805188
:100F9C00BB4800F0F8FF01224FF40051B84800F0B4
:100FAC00F2FF7B68012B28D101228021B44800F08C
:100FBC00EAFF00224FF48071B14800F0E4FF0022F8
:100FCC004FF40071AE4800F0DEFF01224FF4806157
:100FDC00AB4800F0D8FF01224FF40061A84800F0A4
:100FEC00D2FF01224FF48051A54800F0CCFF012222
:100FFC004FF40051A24800F0C6FF7B68022B28D1A9
:10100C00002280219E4800F0BEFF00224FF4807128
:10101C009B4800F0B8FF01224FF40071984800F093
:10102C00B2FF00224FF48061954800F0ACFF002223
:10103C004FF40061924800F0A6FF01224FF480515A
:10104C008F4800F0A0FF00224FF400518C4800F0B4
:10105C009AFF7B68032B28D100228021884800F05E
:10106C0092FF00224FF48071854800F08CFF002223
:10107C004FF40071824800F086FF00224FF480612B
:10108C007F4800F080FF01224FF400617C4800F0A3
:10109C007AFF01224FF48051794800F074FF00224E
:1010AC004FF40051764800F06EFF7B68042B28D17A
:1010BC0001228021724800F066FF00224FF48071FB
:1010CC006F4800F060FF00224FF400716C4800F094
:1010DC005AFF01224FF48061694800F054FF01224D
:1010EC004FF40061664800F04EFF00224FF480512F
:1010FC00634800F048FF00224FF40051604800F0B4
:10110C0042FF7B68052B28D1002280215C4800F02F
:10111C003AFF01224FF48071594800F034FF00224D
:10112C004FF40071564800F02EFF00224FF48061FE
:10113C00534800F028FF01224FF40061504800F0A2
:10114C0022FF00224FF480514D4800F01CFF00227A
:10115C004FF400514A4800F016FF7B68062B28D14B
:10116C0000228021464800F00EFF01224FF48071CE
:10117C00434800F008FF00224FF40071404800F093
:10118C0002FF00224FF480613D4800F0FCFE00227B
:10119C004FF400613A4800F0F6FE00224FF4805103
:1011AC00374800F0F0FE00224FF40051344800F0B4
:1011BC00EAFE7B68072B28D100228021304800F002
:1011CC00E2FE00224FF480712D4800F0DCFE00227C
:1011DC004FF400712A4800F0D6FE01224FF48061D2
:1011EC00274800F0D0FE01224FF40061244800F0A3
:1011FC00CAFE01224FF48051214800F0C4FE0122A6
:10120C004FF400511E4800F0BEFE7B68082B28D11D
:10121C00002280211A4800F0B6FE00224FF48071A3
:10122C00174800F0B0FE00224FF40071144800F093
:10123C00AAFE00224FF48061114800F0A4FE0022A7
:10124C004FF400610E4800F09EFE00224FF48051D6
:10125C000B4800F098FE00224FF40051084800F0B3
:10126C0092FE7B68092B2ED100228021044800F0CD
:10127C008AFE00224FF4807104E000BF6766666648
:10128C00000C0140284800F07EFE00224FF4007153
:10129C00254800F078FE00224FF48061224800F0CF
:1012AC0072FE01224FF400611F4800F06CFE002218
:1012BC004FF480511C4800F066FE00224FF40051A0
:1012CC00194800F060FE7B680A2B28D1012280218E
:1012DC00154800F058FE01224FF48071124800F0BE
:1012EC0052FE01224FF400710F4800F04CFE012217
:1012FC004FF480610C4800F046FE01224FF400616F
:10130C00094800F040FE01224FF48051064800F0DD
:10131C003AFE01224FF40051034800F034FE00BFA6
:10132C000837BD4680BD00BF000C014080B582B0BF
:10133C0000AF786039607B68002B03D07B68012B91
:10134C0004D007E03868FFF72FFC03E03868FFF79C
:10135C00EBFD00BF00BF0837BD4680BD80B582B035
:10136C0000AF78600A217868FFF7E0FF00BF08370C
:10137C00BD4680BD80B500AF094B1B68012B0CD15D
:10138C00642000F0A5F9074B1B68013B054A13606C
:10139C00054B1B68013B044A136000BF80BD00BFB6
:1013AC008C000020740000207800002080B500AF75
:1013BC00074B1B68012B08D1322000F09DF900204F
:1013CC00FFF75CFB0120FFF759FB00BF80BD00BF9E
:1013DC009400002080B500AF074B1B68012B08D18F
:1013EC00322000F089F90020FFF77AFB0120FFF78B
:1013FC0077FB00BF80BD00BF9400002080B500AF1C
:10140C00074B1B68012B08D1322000F075F9002026
:10141C00FFF798FB0120FFF795FB00BF80BD00BFD5
:10142C009400002080B500AF00F0ACFA00F02CF86E
:10143C0000F066F800F0B0F8104801F00DFA104B0F
:10144C0001221A600F4B01221A600020FFF786FF61
:10145C000120FFF783FF0020FFF780FF0120FFF73B
:10146C007DFF642000F034F9322000F045F9FEF7DE
:10147C007BFFFFF749F8FFF741F9F8E7AC000020D4
:10148C00680000206C00002080B590B000AF07F120
:10149C00180328220021184601F096FD3B1D00225E
:1014AC001A605A609A60DA601A610223BB610123E8
:1014BC00BB621023FB6200237B6307F11803184601
:1014CC0000F092FD0346002B01D000F0D3F80F235F
:1014DC007B600023BB600023FB6000233B61002387
:1014EC007B613B1D0021184600F0FEFF0346002BDC
:1014FC0001D000F0BFF800BF4037BD4680BD0000F2
:10150C0080B586B000AF07F1080300221A605A605C
:10151C009A60DA603B4600221A605A601D4B4FF00D
:10152C0080421A601B4B41F63F725A60194B0022E5
:10153C009A60184B0922DA60164B00221A61154B7F
:10154C0000229A61134801F037F90346002B01D0B1
:10155C0000F090F84FF48053BB6007F10803194674
:10156C000C4801F0CDFA0346002B01D000F082F8B4
:10157C0000233B6000237B603B461946054801F085
:10158C0095FC0346002B01D000F074F800BF18370F
:10159C00BD4680BDAC00002080B586B000AF07F121
:1015AC00080300221A605A609A60DA60284B9B6923
:1015BC00274A43F004039361254B9B6903F0040312
:1015CC007B607B68224B9B69214A43F00803936143
:1015DC001F4B9B6903F008033B603B6800224FF4F0
:1015EC007C711C4800F0CFFC002243F6FF711A48B6
:1015FC0000F0C9FC0E23BB600023FB6001233B61A0
:10160C0007F108031946134800F02CFB4FF47C73C8
:10161C00BB600123FB6000233B6102237B6107F16C
:10162C00080319460B4800F01DFB43F6FF73BB6023
:10163C000123FB6000233B6102237B6107F108035C
:10164C001946054800F00EFB00BF1837BD4680BD9B
:10165C000010024000080140000C014080B582B02F
:10166C0000AF7860FEF7B6FD00F05AF800BF0837FF
:10167C00BD4680BD80B400AF72B600BFFEE700006F
:10168C0080B483B000AF7860054A7B681360054B6B
:10169C0000221A6000BF0C37BD4680BC704700BFEB
:1016AC00800000207C00002080B483B000AF786004
:1016BC00054A7B681360054B00221A6000BF0C378B
:1016CC00BD4680BC704700BF88000020840000200D
:1016DC0080B483B000AF7860054A7B681360054B1B
:1016EC0000221A6000BF0C37BD4680BC704700BF9B
:1016FC00900000208C00002080B483B000AF786094
:10170C00054A7B681360054B00221A6000BF0C373A
:10171C00BD4680BC704700BF98000020940000209C
:10172C0080B400AF314B1B68002B0BDD2F4B1B68BB
:10173C00013B2E4A13602D4B1B68002B02DC2C4BFB
:10174C0001221A602B4B1B68002B0BDD294B1B68ED
:10175C00013B284A1360274B1B68002B02DC264BED
:10176C0001221A60254B1B68002B0BDD234B1B68D9
:10177C00013B224A1360214B1B68002B02DC204BDF
:10178C0001221A601F4B1B68002B0BDD1D4B1B68C5
:10179C00013B1C4A13601B4B1B68002B02DC1A4BD1
:1017AC0001221A60194B1B68002B0BDD174B1B68B1
:1017BC00013B164A1360154B1B68002B02DC144BC3
:1017CC0001221A60134B1B68002B0BDD114B1B689D
:1017DC00013B104A13600F4B1B68002B02DC0E4BB5
:1017EC0001221A6000BFBD4680BC704780000020FB
:1017FC007C00002088000020840000209000002045
:10180C008C0000209800002094000020A0000020F4
:10181C009C000020A8000020A400002080B485B00B
:10182C0000AF154B9B69144A43F001039361124BB3
:10183C009B6903F00103BB60BB680F4BDB690E4A6D
:10184C0043F08053D3610C4BDB6903F080537B6016
:10185C007B680A4B5B68FB60FB6823F0E063FB6012
:10186C00FB6843F08063FB60044AFB68536000BF75
:10187C001437BD4680BC7047001002400000014088
:10188C0080B584B000AF78607B681B68B3F1804F83
:10189C0013D10C4BDB690B4A43F00103D361094BA9
:1018AC00DB6903F00103FB60FB68002200211C20B4
:1018BC0000F0A1F91C2000F0BAF900BF1037BD46AA
:1018CC0080BD00BF0010024080B400AFFEE780B4C2
:1018DC0000AFFEE780B400AFFEE780B400AFFEE7D8
:1018EC0080B400AFFEE780B400AF00BFBD4680BC43
:1018FC00704780B400AF00BFBD4680BC704780B459
:10190C0000AF00BFBD4680BC704780B500AF00F093
:10191C007FF800BF80BD000080B500AF024800F02A
:10192C00E7FF00BF80BD00BFAC00002080B400AF5B
:10193C0000BFBD4680BC70470C480D490D4A0023C2
:10194C0002E0D458C4500433C4188C42F9D30A4A68
:10195C000A4C002301E013600432A242FBD3FFF7D0
:10196C00E5FF01F00DFBFFF75DFD70470000002067
:10197C00400000202430000840000020F800002027
:10198C00FEE7000080B500AF084B1B68074A43F028
:10199C0010031360032000F023F90F2000F008F867
:1019AC00FFF73CFF0023184680BD00BF002002401B
:1019BC0080B582B000AF7860124B1A68124B1B785E
:1019CC0019464FF47A73B3FBF1F3B2FBF3F31846F9
:1019DC0000F03BF90346002B01D001230EE07B689D
:1019EC000F2B0AD8002279684FF0FF3000F003F972
:1019FC00064A7B681360002300E001231846083771
:101A0C00BD4680BD340000203C0000203800002082
:101A1C0080B400AF054B1B781A46054B1B6813446A
:101A2C00034A136000BFBD4680BC70473C000020D9
:101A3C00F400002080B400AF024B1B681846BD4672
:101A4C0080BC7047F400002080B485B000AF786093
:101A5C007B6803F00703FB600C4BDB68BB60BA6868
:101A6C004FF6FF031340BB60FB681A02BB681343BD
:101A7C0043F0BF6343F40033BB60044ABB68D360DC
:101A8C0000BF1437BD4680BC704700BF00ED00E0BE
:101A9C0080B400AF044BDB681B0A03F00703184645
:101AAC00BD4680BC704700BF00ED00E080B483B041
:101ABC0000AF0346FB7197F90730002B0BDBFB796A
:101ACC0003F01F02064997F907305B09012000FA61
:101ADC0002F241F8232000BF0C37BD4680BC704792
:101AEC0000E100E080B483B000AF03463960FB71C5
:101AFC0097F90730002B0ADB3B68DAB20C4997F9EF
:101B0C0007301201D2B20B4483F800230AE03B6881
:101B1C00DAB20849FB7903F00F03043B1201D2B28D
:101B2C000B441A7600BF0C37BD4680BC704700BF13
:101B3C0000E100E000ED00E080B489B000AFF86097
:101B4C00B9607A60FB6803F00703FB61FB69C3F1C2
:101B5C000703042B28BF0423BB61FB690433062B4A
:101B6C0002D9FB69033B00E000237B614FF0FF329D
:101B7C00BB6902FA03F3DA43BB681A407B699A40EB
:101B8C004FF0FF317B6901FA03F3D9437B680B40BB
:101B9C00134318462437BD4680BC704780B582B0CD
:101BAC0000AF78607B68013BB3F1807F01D30123E8
:101BBC000FE00A4A7B68013B53600F214FF0FF3066
:101BCC00FFF790FF054B00229A60044B07221A6026
:101BDC00002318460837BD4680BD00BF10E000E06A
:101BEC0080B582B000AF78607868FFF72DFF00BF3A
:101BFC000837BD4680BD80B586B000AF0346B960DE
:101C0C007A60FB7300237B61FFF742FF78617A688F
:101C1C00B9687869FFF790FF024697F90F301146C3
:101C2C001846FFF75FFF00BF1837BD4680BD80B573
:101C3C0082B000AF0346FB7197F907301846FFF7E7
:101C4C0035FF00BF0837BD4680BD80B582B000AF00
:101C5C0078607868FFF7A2FF034618460837BD4640
:101C6C0080BD000080B48BB000AF78603960002379
:101C7C007B6200233B6248E101227B6A02FA03F398
:101C8C00FB613B681B68FA691340BB61BA69FB696D
:101C9C009A4240F037813B685B68A34A93425ED01E
:101CAC00A14A934275D8A14A934258D09F4A934275
:101CBC006FD89F4A934252D09D4A934269D89D4A0D
:101CCC0093424CD09B4A934263D89B4A934246D052
:101CDC00994A93425DD8122B2AD8122B59D801A2BB
:101CEC0052F823F06B1D0008451D0008571D000815
:101CFC00991D00089F1D00089F1D00089F1D0008CE
:101D0C009F1D00089F1D00089F1D00089F1D0008B7
:101D1C009F1D00089F1D00089F1D00089F1D0008A7
:101D2C009F1D00089F1D00084D1D0008611D000827
:101D3C00824A934213D02CE03B68DB683B6229E07B
:101D4C003B68DB6804333B6224E03B68DB680833A8
:101D5C003B621FE03B68DB680C333B621AE03B687C
:101D6C009B68002B02D104233B6213E03B689B6809
:101D7C00012B05D108233B627B68FA691A6109E0E3
:101D8C0008233B627B68FA695A6103E000233B62DB
:101D9C0000E000BFBB69FF2B01D87B6801E07B68CA
:101DAC0004337B61BB69FF2B02D87B6A9B0002E08A
:101DBC007B6A083B9B003B617B691A680F213B697E
:101DCC0001FA03F3DB431A40396A3B6901FA03F366
:101DDC001A437B691A603B685B6803F08053002BE5
:101DEC0000F09080564B9B69554A43F00103936178
:101DFC00534B9B6903F00103BB60BB68514A7B6A80
:101E0C009B08023352F82330FB607B6A03F0030318
:101E1C009B000F2202FA03F3DB43FA681340FB60CA
:101E2C007B68494A93420DD07B68484A934207D05D
:101E3C007B68474A934201D1022304E0032302E06A
:101E4C00012300E000237A6A02F00302920093401F
:101E5C00FA681343FB603B497B6A9B080233FA68C0
:101E6C0041F823203B685B6803F48033002B06D0D9
:101E7C00384B1A683749BB6913430B6006E0354B86
:101E8C001A68BB69DB43334913400B603B685B68E2
:101E9C0003F40033002B06D02E4B5A682D49BB6936
:101EAC0013434B6006E02B4B5A68BB69DB43294953
:101EBC0013404B603B685B6803F48013002B06D027
:101ECC00244B9A682349BB6913438B6006E0214B72
:101EDC009A68BB69DB431F4913408B603B685B68A6
:101EEC0003F40013002B06D01A4BDA681949BB69AE
:101EFC001343CB6006E0174BDA68BB69DB4315492B
:101F0C001340CB607B6A01337B623B681A687B6A47
:101F1C0022FA03F3002B7FF4AFAE00BF00BF2C37C7
:101F2C00BD4680BC704700BF00003210000031106D
:101F3C0000002210000021100000121000001110EF
:101F4C00001002400000014000080140000C01405C
:101F5C00001001400004014080B485B000AF7860EF
:101F6C000B467B807B689A687B881340002B02D0E1
:101F7C000123FB7301E00023FB73FB7B1846143732
:101F8C00BD4680BC704780B483B000AF78600B4610
:101F9C007B8013467B707B78002B03D07A887B6820
:101FAC001A6103E07B881A047B681A6100BF0C3746
:101FBC00BD4680BC704780B485B000AF78600B46DE
:101FCC007B807B68DB68FB607A88FB6813401A04B3
:101FDC00FB68D9437B880B401A437B681A6100BFAE
:101FEC001437BD4680BC704780B586B000AF7860B2
:101FFC007B68002B01D101236CE27B681B6803F02A
:10200C000103002B00F08780924B5B6803F00C03FC
:10201C00042B0CD08F4B5B6803F00C03082B12D1F4
:10202C008C4B5B6803F48033B3F5803F0BD1894B49
:10203C001B6803F40033002B6CD07B685B68002BAF
:10204C0068D1012346E27B685B68B3F5803F06D11B
:10205C00804B1B687F4A43F4803313602EE07B680F
:10206C005B68002B0CD17B4B1B687A4A23F48033C2
:10207C001360784B1B68774A23F4802313601DE0B0
:10208C007B685B68B3F5A02F0CD1724B1B68714A4F
:10209C0043F4802313606F4B1B686E4A43F4803308
:1020AC0013600BE06B4B1B686A4A23F4803313609C
:1020BC00684B1B68674A23F4802313607B685B685A
:1020CC00002B13D0FFF7B6FC386108E0FFF7B2FC29
:1020DC0002463B69D31A642B01D90323FAE15D4B09
:1020EC001B6803F40033002BF0D014E0FFF7A2FCC4
:1020FC00386108E0FFF79EFC02463B69D31A642B5B
:10210C0001D90323E6E1534B1B6803F40033002B86
:10211C00F0D100E000BF7B681B6803F00203002BCA
:10212C0063D04C4B5B6803F00C03002B0BD0494B7A
:10213C005B6803F00C03082B1CD1464B5B6803F463
:10214C008033002B16D1434B1B6803F00203002B8A
:10215C0005D07B681B69012B01D00123BAE13D4BF3
:10216C001B6823F0F8027B685B69DB003949134379
:10217C000B603AE07B681B69002B20D0364B0122A8
:10218C001A60FFF757FC386108E0FFF753FC024672
:10219C003B69D31A022B01D903239BE12D4B1B68FE
:1021AC0003F00203002BF0D02A4B1B6823F0F8023B
:1021BC007B685B69DB00274913430B6015E0264BFA
:1021CC0000221A60FFF736FC386108E0FFF732FC9A
:1021DC0002463B69D31A022B01D903237AE11D4B2A
:1021EC001B6803F00203002BF0D17B681B6803F023
:1021FC000803002B3AD07B689B69002B19D0174B36
:10220C0001221A60FFF716FC386108E0FFF712FC98
:10221C0002463B69D31A022B01D903235AE10D4B19
:10222C005B6A03F00203002BF0D0012000F0A6FA49
:10223C001CE00A4B00221A60FFF7FCFB38610FE030
:10224C00FFF7F8FB02463B69D31A022B08D903238C
:10225C0040E100BF001002400000424280044242B4
:10226C009E4B5B6A03F00203002BE9D17B681B6871
:10227C0003F00403002B00F0A6800023FB75974BA2
:10228C00DB6903F08053002B0DD1944BDB69934A2F
:10229C0043F08053D361914BDB6903F08053BB60F7
:1022AC00BB680123FB758E4B1B6803F48073002BFA
:1022BC0018D18B4B1B688A4A43F480731360FFF769
:1022CC00B9FB386108E0FFF7B5FB02463B69D31A4E
:1022DC00642B01D90323FDE0814B1B6803F480734D
:1022EC00002BF0D07B68DB68012B06D17B4B1B6A83
:1022FC007A4A43F0010313622DE07B68DB68002B04
:10230C000CD1764B1B6A754A23F001031362734B95
:10231C001B6A724A23F0040313621CE07B68DB68BF
:10232C00052B0CD16D4B1B6A6C4A43F004031362F2
:10233C006A4B1B6A694A43F0010313620BE0674B5B
:10234C001B6A664A23F001031362644B1B6A634ADF
:10235C0023F0040313627B68DB68002B15D0FFF7B6
:10236C0069FB38610AE0FFF765FB02463B69D31A4B
:10237C0041F28832934201D90323ABE0574B1B6ADD
:10238C0003F00203002BEED014E0FFF753FB38618F
:10239C000AE0FFF74FFB02463B69D31A41F2883241
:1023AC00934201D9032395E04C4B1B6A03F00203C3
:1023BC00002BEED1FB7D012B05D1484BDB69474A45
:1023CC0023F08053D3617B68DB69002B00F08180A4
:1023DC00424B5B6803F00C03082B61D07B68DB6914
:1023EC00022B46D13F4B00221A60FFF723FB3861CA
:1023FC0008E0FFF71FFB02463B69D31A022B01D9F9
:10240C00032367E0354B1B6803F00073002BF0D1FE
:10241C007B681B6AB3F5803F08D1304B5B6823F4B3
:10242C0000327B689B682D4913434B602B4B5B68D8
:10243C0023F474127B68196A7B685B6A0B43274927
:10244C0013434B60274B01221A60FFF7F3FA3861F4
:10245C0008E0FFF7EFFA02463B69D31A022B01D9C9
:10246C00032337E01D4B1B6803F00073002BF0D0E7
:10247C002FE01C4B00221A60FFF7DCFA386108E0F1
:10248C00FFF7D8FA02463B69D31A022B01D9032372
:10249C0020E0124B1B6803F00073002BF0D118E006
:1024AC007B68DB69012B01D1012313E00B4B5B68CB
:1024BC00FB60FB6803F480327B681B6A9A4206D18E
:1024CC00FB6803F470127B685B6A9A4201D00123AB
:1024DC0000E0002318461837BD4680BD00100240AE
:1024EC00007000406000424280B584B000AF78605C
:1024FC0039607B68002B01D10123D0E06A4B1B684B
:10250C0003F007033A689A4210D9674B1B6823F013
:10251C00070265493B6813430B60634B1B6803F070
:10252C0007033A689A4201D00123B8E07B681B6824
:10253C0003F00203002B20D07B681B6803F004031C
:10254C00002B05D0594B5B68584A43F4E063536049
:10255C007B681B6803F00803002B05D0534B5B68AA
:10256C00524A43F460535360504B5B6823F0F002C3
:10257C007B689B684D4913434B607B681B6803F079
:10258C000103002B40D07B685B68012B07D1474BC4
:10259C001B6803F40033002B15D101237FE07B680B
:1025AC005B68022B07D1414B1B6803F00073002BB7
:1025BC0009D1012373E03D4B1B6803F00203002B90
:1025CC0001D101236BE0394B5B6823F003027B687C
:1025DC005B68364913434B60FFF72CFAF8600AE04E
:1025EC00FFF728FA0246FB68D31A41F2883293426D
:1025FC0001D9032353E02D4B5B6803F00C027B687D
:10260C005B689B009A42EBD1274B1B6803F00703D6
:10261C003A689A4210D2244B1B6823F007022249D5
:10262C003B6813430B60204B1B6803F007033A68AD
:10263C009A4201D0012332E07B681B6803F004034B
:10264C00002B08D0194B5B6823F4E0627B68DB68D5
:10265C00164913434B607B681B6803F00803002B7F
:10266C0009D0124B5B6823F460527B681B69DB005A
:10267C000E4913434B6000F021F802460B4B5B688C
:10268C001B0903F00F030A49CB5C22FA03F3094A36
:10269C001360094B1B681846FFF78AF9002318468C
:1026AC001037BD4680BD00BF002002400010024024
:1026BC000C300008340000203800002090B48AB0A0
:1026CC0000AF2A4B3C1D0FCB84E80F0040F20123D6
:1026DC003B800023FB610023BB6100237B62002352
:1026EC007B6100233B62224B5B68FB61FB6903F05F
:1026FC000C03042B02D0082B03D02DE01D4B3B62A6
:10270C002DE0FB699B0C03F00F0307F12802134427
:10271C0013F8243C7B61FB6903F48033002B13D04A
:10272C00134B5B685B0C03F0010307F128021344A5
:10273C0013F8283CBB617B690E4A02FB03F2BB69B0
:10274C00B2FBF3F37B6204E07B690B4A02FB03F3FD
:10275C007B627B6A3B6202E0064B3B6200BF3B6ADA
:10276C0018462837BD4690BC704700BFFC2F0008A8
:10277C000010024000127A0000093D0080B485B0C0
:10278C0000AF78600A4B1B680A4AA2FB03235B0A62
:10279C007A6802FB03F3FB6000BFFB685A1EFA6009
:1027AC00002BF9D100BF00BF1437BD4680BC704769
:1027BC0034000020D34D621080B582B000AF786039
:1027CC007B68002B01D1012341E07B6893F83D30FD
:1027DC00DBB2002B06D17B68002283F83C207868A2
:1027EC00FFF74EF87B68022283F83D207B681A685D
:1027FC007B6804331946104600F06AFA7B680122A4
:10280C0083F846207B68012283F83E207B680122F6
:10281C0083F83F207B68012283F840207B680122EB
:10282C0083F841207B68012283F842207B680122D7
:10283C0083F843207B68012283F844207B680122C3
:10284C0083F845207B68012283F83D20002318463D
:10285C000837BD4680BD000080B485B000AF7860FD
:10286C007B6893F83D30DBB2012B01D0012335E0BE
:10287C007B68022283F83D207B681B68DA687B68E2
:10288C001B6842F00102DA607B681B68164A9342AF
:10289C0009D07B681B68B3F1804F04D07B681B6840
:1028AC00124A934211D17B681B689B6803F00703A3
:1028BC00FB60FB68062B10D07B681B681A687B6872
:1028CC001B6842F001021A6007E07B681B681A68FB
:1028DC007B681B6842F001021A600023184614370B
:1028EC00BD4680BC704700BF002C01400004004076
:1028FC0080B582B000AF78607B681B681B6903F001
:10290C000203022B22D17B681B68DB6803F00203F5
:10291C00022B1BD17B681B686FF002021A617B686B
:10292C0001221A777B681B689B6903F00303002B59
:10293C0003D0786800F0B1F905E0786800F0A4F9EC
:10294C00786800F0B3F97B6800221A777B681B6803
:10295C001B6903F00403042B22D17B681B68DB6822
:10296C0003F00403042B1BD17B681B686FF004027B
:10297C001A617B6802221A777B681B689B6903F4D7
:10298C004073002B03D0786800F087F905E0786875
:10299C0000F07AF9786800F089F97B6800221A77E0
:1029AC007B681B681B6903F00803082B22D17B682A
:1029BC001B68DB6803F00803082B1BD17B681B68C2
:1029CC006FF008021A617B6804221A777B681B6817
:1029DC00DB6903F00303002B03D0786800F05DF98A
:1029EC0005E0786800F050F9786800F05FF97B68D2
:1029FC0000221A777B681B681B6903F01003102BED
:102A0C0022D17B681B68DB6803F01003102B1BD1F1
:102A1C007B681B686FF010021A617B6808221A77BA
:102A2C007B681B68DB6903F44073002B03D0786868
:102A3C0000F033F905E0786800F026F9786800F0CA
:102A4C0035F97B6800221A777B681B681B6903F0D9
:102A5C000103012B0ED17B681B68DB6803F00103BB
:102A6C00012B07D17B681B686FF001021A61786833
:102A7C00FEF7F4FD7B681B681B6903F08003802B59
:102A8C000ED17B681B68DB6803F08003802B07D1B9
:102A9C007B681B686FF080021A61786800F067FA37
:102AAC007B681B681B6903F04003402B0ED17B68CD
:102ABC001B68DB6803F04003402B07D17B681B6865
:102ACC006FF040021A61786800F0F9F87B681B68B7
:102ADC001B6903F02003202B0ED17B681B68DB687D
:102AEC0003F02003202B07D17B681B686FF02002BA
:102AFC001A61786800F032FA00BF0837BD4680BD15
:102B0C0080B584B000AF786039607B6893F83C3056
:102B1C00012B01D10223B3E07B68012283F83C2016
:102B2C007B68022283F83D207B681B689B68FB60F6
:102B3C00FB6823F07703FB60FB6823F47F43FB60A7
:102B4C007B681B68FA689A603B681B68B3F5005F8A
:102B5C003ED0B3F5005F00F28780B3F5805F00F0E4
:102B6C008580B3F5805F7FD8702B1AD0702B7BD803
:102B7C00602B50D0602B77D8502B3CD0502B73D877
:102B8C00402B58D0402B6FD8302B64D0302B6BD8C7
:102B9C00202B60D0202B67D8002B5CD0102B5AD068
:102BAC0062E07B6818683B6899683B685A683B68C8
:102BBC00DB6800F05CF97B681B689B68FB60FB685A
:102BCC0043F07703FB607B681B68FA689A604EE001
:102BDC007B6818683B6899683B685A683B68DB6897
:102BEC0000F045F97B681B689A687B681B6842F4A7
:102BFC0080429A603BE07B6818683B6859683B6888
:102C0C00DB681A4600F0BCF87B681B68502118463C
:102C1C0000F013F92BE07B6818683B6859683B6837
:102C2C00DB681A4600F0DAF87B681B6860211846EE
:102C3C0000F003F91BE07B6818683B6859683B6837
:102C4C00DB681A4600F09CF87B681B68402118462C
:102C5C0000F0F3F80BE07B681A683B681B681946B8
:102C6C00104600F0EAF802E000BF00E000BF7B680D
:102C7C00012283F83D207B68002283F83C2000234E
:102C8C0018461037BD4680BD80B483B000AF786065
:102C9C0000BF0C37BD4680BC704780B483B000AF1A
:102CAC00786000BF0C37BD4680BC704780B483B0E1
:102CBC0000AF786000BF0C37BD4680BC704780B455
:102CCC0083B000AF786000BF0C37BD4680BC704746
:102CDC0080B485B000AF786039607B681B68FB609E
:102CEC007B68254A934207D07B68B3F1804F03D0B1
:102CFC007B68224A934208D1FB6823F07003FB6087
:102D0C003B685B68FA681343FB607B681A4A934222
:102D1C0007D07B68B3F1804F03D07B68174A93428E
:102D2C0008D1FB6823F44073FB603B68DB68FA68EE
:102D3C001343FB60FB6823F080023B685B69134321
:102D4C00FB607B68FA681A603B689A687B68DA6299
:102D5C003B681A687B689A627B68074A934203D186
:102D6C003B681A697B681A637B6801225A6100BF51
:102D7C001437BD4680BC7047002C01400004004055
:102D8C0080B487B000AFF860B9607A60FB681B6AEA
:102D9C007B61FB681B6A23F00102FB681A62FB680B
:102DAC009B693B613B6923F0F0033B617B681B0132
:102DBC003A6913433B617B6923F00A037B617A69AF
:102DCC00BB6813437B61FB683A699A61FB687A695B
:102DDC001A6200BF1C37BD4680BC704780B487B0F8
:102DEC0000AFF860B9607A60FB681B6A23F01002D0
:102DFC00FB681A62FB689B697B61FB681B6A3B6121
:102E0C007B6923F470437B617B681B037A691343F2
:102E1C007B613B6923F0A0033B61BB681B013A69F2
:102E2C0013433B61FB687A699A61FB683A691A62E1
:102E3C0000BF1C37BD4680BC704780B485B000AF66
:102E4C00786039607B689B68FB60FB6823F07003DB
:102E5C00FB603A68FB68134343F00703FB607B6835
:102E6C00FA689A6000BF1437BD4680BC704780B4C6
:102E7C0087B000AFF860B9607A603B60FB689B6814
:102E8C007B617B6923F47F437B613B681A027B681F
:102E9C001A43BB6813437A6913437B61FB687A69F5
:102EAC009A6000BF1C37BD4680BC704780B485B0AB
:102EBC0000AF786039607B6893F83C30012B01D10E
:102ECC00022341E07B68012283F83C207B680222CC
:102EDC0083F83D207B681B685B68FB607B681B6824
:102EEC009B68BB60FB6823F07003FB603B681B684E
:102EFC00FA681343FB607B681B68FA685A607B684E
:102F0C001B68144A934209D07B681B68B3F1804F4D
:102F1C0004D07B681B68104A93420CD1BB6823F029
:102F2C008003BB603B685B68BA681343BB607B681B
:102F3C001B68BA689A607B68012283F83D207B6825
:102F4C00002283F83C20002318461437BD4680BC71
:102F5C00704700BF002C01400004004080B483B0D7
:102F6C0000AF786000BF0C37BD4680BC704780B4A2
:102F7C0083B000AF786000BF0C37BD4680BC704793
:102F8C0070B500260C4D0D4C641BA410A64209D143
:102F9C0000F022F800260A4D0A4C641BA410A6422D
:102FAC0005D170BD55F8043B98470136EEE755F84E
:102FBC00043B98470136F2E71C3000081C3000082F
:102FCC001C3000082030000803460244934200D114
:102FDC00704703F8011BF9E7F8B500BFF8BC08BC53
:102FEC009E467047F8B500BFF8BC08BC9E467047BB
:102FFC0002030405060708090A0B0C0D0E0F10102E
:10300C00000000000000000001020304060708098C
:04301C003101000876
:043020000D01000896
:103024000101010001000000010000000100000096
:103034000100000001000000010000000100000088
:103044000100000001000000050000000300000072
:10305400020000000024F400100000000100000041
:040000050800194591
:00000001FF
